:100000000C9434000C9451000C9451000C94510049
:100010000C9451000C9451000C9451000C9451001C
:100020000C9451000C9451000C9451000C9451000C
:100030000C9451000C9451000C9473000C945100DA
:100040000C9451000C9451000C9451000C945100EC
:100050000C9451000C9451000C9451000C945100DC
:100060000C9451000C94510011241FBECFEFD8E026
:10007000DEBFCDBF11E0A0E0B1E0ECE9F3E002C0EB
:1000800005900D92A231B107D9F721E0A2E1B1E0CC
:1000900001C01D92AA31B207E1F70E9413010C942E
:1000A000CC010C94000016BC8FE987BD84B582603A
:1000B00084BD85B5816085BD5D9A259A7894089543
:1000C000E82FE695E695E695E60FF72FF11D2081DE
:1000D00030E08770A90102C0559547958A95E2F7EF
:1000E000CA01817008951F920F920FB60F921124CA
:1000F0008F939F93AF93BF938091150190911601B9
:10010000A0911701B09118010A96A11DB11D80930D
:10011000150190931601A0931701B09318018091D7
:1001200019018F5F8093190180911901843659F468
:100130008091130190911401019690931401809382
:10014000130110921901BF91AF919F918F910F9060
:100150000FBE0F901F90189516BCA99AEEE6F0E01E
:100160008081826080830895EEE6F0E080818D7F5B
:10017000808316BC1092190110921501109216017D
:10018000109217011092180110921401109213018D
:100190000895CF93DF93D82FC0E06CE071E0D5369F
:1001A00031F060E071E0D13611F466E071E08C2F3F
:1001B0000E946000811109C0209A28988FE79EE371
:1001C0000197F1F700C0000019C080911201882347
:1001D00041F1209A0E94AC00199B21C0289A80917D
:1001E000150190911601A0911701B0911801803A64
:1001F0009F40A105B10580F30E94B400CF5FCC32CF
:1002000061F6209A28989FEF24E684E091502040E0
:100210008040E1F700C00000DF91CF910895289859
:10022000DECF2098CBCFCF93DF93CDB7DEB72C971F
:100230000FB6F894DEBF0FBECDBFCE0101967C0194
:100240008CE0F70111928A95E9F70E9453002D9AEC
:100250004E9BFECF199BFECF0E94AC00D12CC12C2F
:1002600083B1199903C0FFEFCF1ADF0A8FE193E042
:100270000197F1F700C000008091130190911401E3
:10028000883E934068F30E94B400F5E6CF16D1048F
:10029000D8F081E0809312012D9810E080E0CC240A
:1002A000C394D12CEFE9FFE03197F1F700C00000D3
:1002B000F89490E020E049EE53E04E9B08C0415096
:1002C0005109D9F710E0F5CF10921201E5CF4E9BFE
:1002D000FECF4F9B07C0A601092E01C0440F0A9410
:1002E000EAF7242B9F5F983031F7F701E10FF11DFA
:1002F00020831F5F1C30E8F27894298126FF3AC0E2
:1003000024FD38C027FD36C09A81911143C09F81DA
:10031000911140C09B8130E6390F333030F091307D
:10032000C9F59C8193509539A8F18F5F8E3008F400
:10033000B9CF2D9A209A289880911201811102C07C
:10034000219A2998FFEF24E684E0F1502040804074
:10035000E1F700C0000085E60E94C90085E60E9422
:10036000C90080911201811101C0219820982D9817
:100370008BE098CF90E0882309F494CF213011F0DE
:10038000992331F09A81911103C09F81992369F2D9
:0C0390008150CCCF91E0EFCFF894FFCF6C
:10039C0059C94B5DDA0259C94B5DFA0259C94B5D1B
:0203AC00EA0263
:00000001FF
