:100000000C9434000C9460000C9451000C9451003A
:100010000C9451000C9451000C9451000C9451001C
:100020000C9451000C9451000C9451000C9451000C
:100030000C9451000C9451000C9496000C945100B7
:100040000C9451000C9451000C9451000C945100EC
:100050000C9451000C9451000C9451000C945100DC
:100060000C9451000C94510011241FBECFEFD8E026
:10007000DEBFCDBF11E0A0E0B1E0E4E3F4E002C0F8
:1000800005900D92A231B107D9F721E0A2E1B1E0CC
:1000900001C01D92AC31B207E1F70E945A010C94E5
:1000A00018020C94000016BC8FE987BD84B58260ED
:1000B00084BD85B5816085BD5D9A259A7894089543
:1000C0001F920F920FB60F9211248F9380911B01F4
:1000D0008F5F80931B0180911B01803371F48EE050
:1000E0008A95F1F700C0549A00C000C05498E8986F
:1000F00010921B0181E080931A018F910F900FBE27
:100100000F901F901895E82FE695E695E695E60F77
:10011000F72FF11D208130E08770A90102C05595AD
:1001200047958A95E2F7CA01817008951F920F9250
:100130000FB60F9211248F939F93AF93BF9380912B
:10014000150190911601A0911701B09118010A961E
:10015000A11DB11D8093150190931601A093170165
:10016000B0931801809119018F5F809319018091DC
:100170001901843659F4809113019091140101966C
:10018000909314018093130110921901BF91AF91C4
:100190009F918F910F900FBE0F901F90189516BCD6
:1001A000A99AEEE6F0E08081826080830895EEE611
:1001B000F0E080818D7F808316BC1092190110922F
:1001C0001501109216011092170110921801109249
:1001D000140110921301089583E0809369004A9BF3
:1001E0001CC04A99FECF4A9BFECF0E94CF0080914F
:1001F000150190911601A0911701B09118018C3B47
:100200009744A140B10598F30E94D70081E08DBBCF
:1002100080911A018130E1F708954A9BFECFE5CF26
:10022000CF93DF93D82FC0E06CE071E0D53631F08A
:1002300060E071E0D13611F466E071E08C2F0E942D
:100240008300811109C0209A28988FE79EE30197C7
:10025000F1F700C0000019C080911201882341F11C
:10026000209A0E94CF00199B21C0289A80911501E5
:1002700090911601A0911701B0911801803A9F400A
:10028000A105B10580F30E94D700CF5FCC3261F6A3
:10029000209A28989FEF24E684E0915020408040E7
:1002A000E1F700C00000DF91CF9108952898DECFDC
:1002B0002098CBCFCF93DF93CDB7DEB72C970FB677
:1002C000F894DEBF0FBECDBFCE0101967C018CE05D
:1002D000F70111928A95E9F70E9453002D9A4D9BE0
:1002E0003AC00E94EC000E94CF00D12CC12C83B1F7
:1002F000199903C0FFEFCF1ADF0A8FE193E001974E
:10030000F1F700C000008091130190911401883E24
:10031000934068F30E94D700F5E6CF16D10400F1B0
:1003200081E0809312012D9810E080E0CC24C394EA
:10033000D12CEFE9FFE03197F1F700C00000F8940D
:1003400090E020E049EE53E04E9B0DC04150510932
:10035000D9F710E0F5CF4E9BFECF199BFECFC3CF50
:1003600010921201E0CF4E9BFECF4F9B07C0A6011B
:10037000092E01C0440F0A94EAF7242B9F5F98309E
:1003800009F7F701E10FF11D20831F5F1C30C0F258
:100390007894298126FF3AC024FD38C027FD36C055
:1003A0009A81911143C09F81911140C09B8130E699
:1003B000390F333030F09130C9F59C819350953925
:1003C000A8F18F5F8E3008F4B4CF2D9A209A289828
:1003D00080911201811102C0219A2998FFEF24E631
:1003E00084E0F15020408040E1F700C0000085E645
:1003F0000E94100185E60E94100180911201811176
:1004000001C0219820982D988BE093CF90E088230D
:1004100009F48FCF213011F0992331F09A81911195
:1004200003C09F81992369F28150CCCF91E0EFCF37
:04043000F894FFCF6E
:1004340059C94B5DDA0259C94B5DFA0259C94B5D82
:02044400EA02CA
:00000001FF
